:020000040000FA
:100000000C9462000C948A000C948A000C948A0070
:100010000C948A000C948A000C948A000C948A0038
:100020000C948A000C948A000C948A000C948A0028
:100030000C948A000C948A000C948A000C948A0018
:100040000C9445030C948A000C948A000C948A004A
:100050000C948A000C948A000C948A000C948A00F8
:100060000C948A000C948A000000000024002700F1
:100070002A0000000000250028002B0000000008D6
:10008000000201000003040700000000000000005F
:1000900000000000230026002900040404040404D6
:1000A0000404020202020202030303030303010227
:1000B00004081020408001020408102001020408F6
:1000C0001020E20411241FBECFEFD8E0DEBFCDBF69
:1000D00011E0A0E0B1E0E6EBFCE002C005900D927B
:1000E000AA36B107D9F721E0AAE6B1E001C01D9216
:1000F000AD38B207E1F710E0C2E6D0E004C02197C6
:10010000FE010E945306C136D107C9F70E94D403ED
:100110000C9459060C940000AF92BF92CF92DF92DC
:10012000EF92FF920F931F93CF93DF936C017B01AC
:100130008B01040F151FEB015E01AE18BF08C0173D
:10014000D10759F06991D601ED91FC910190F081B0
:10015000E02DC6010995892B79F7C501DF91CF9173
:100160001F910F91FF90EF90DF90CF90BF90AF90D5
:10017000089590E0FC01E458FF4F2491FC01E25502
:10018000FF4F3491FC01E656FF4FE491EE23C9F096
:10019000222339F0233001F1A8F4213019F1223063
:1001A00029F1F0E0EE0FFF1FEE58FF4FA591B4913B
:1001B0008FB7F894EC91611126C030953E233C93A3
:1001C0008FBF08952730A9F02830C9F0243049F7AF
:1001D000809180008F7D03C0809180008F77809315
:1001E0008000DFCF84B58F7784BDDBCF84B58F7D72
:1001F000FBCF8091B0008F778093B000D2CF8091F9
:10020000B0008F7DF9CF3E2BDACFCF93DF9390E014
:10021000FC01E255FF4F249186569F4FFC018491CB
:100220008823D1F090E0880F991FFC01E859FF4F17
:10023000A591B491FC01EE58FF4FC591D491611185
:100240000EC09FB7F8948C91E22FE0958E238C938B
:100250002881E223E8839FBFDF91CF9108958FB774
:10026000F894EC91E22BEC938FBFF6CF3FB7F89464
:1002700080916F0190917001A0917101B091720114
:1002800026B5A89B05C02F3F19F00196A11DB11DF1
:100290003FBFBA2FA92F982F8827BC01CD01620F2D
:1002A000711D811D911D42E0660F771F881F991FE8
:1002B0004A95D1F708958F929F92AF92BF92CF92B5
:1002C000DF92EF92FF924B015C010E9436016B01BD
:1002D0007C010E9436016C197D098E099F09683ED8
:1002E000734081059105A8F321E0821A9108A108C5
:1002F000B10888EEC80E83E0D81EE11CF11C811401
:100300009104A104B10429F7FF90EF90DF90CF9002
:10031000BF90AF909F908F900895089590E080E0F7
:1003200008958F929F92AF92BF920F931F93CF9396
:10033000DF93CDB7DEB7A1970FB6F894DEBF0FBE3F
:10034000CDBF19A2423008F44AE08E010F5D1F4F65
:10035000842E912CB12CA12CA50194010E94310670
:10036000E62FB901CA01EA3044F5E05DD801EE9309
:100370008D01232B242B252B79F790E080E010971B
:1003800069F0FD0101900020E9F73197AF014A1BA8
:100390005B0BBD0185E791E00E948C00A1960FB632
:1003A000F894DEBF0FBECDBFDF91CF911F910F91AB
:1003B000BF90AF909F908F900895E95CD7CFFC01DC
:1003C00001900020E9F73197AF01481B590BBC01A0
:1003D00085E791E00C948C00CF93DF93EC0160E013
:1003E0008E810E94B90061E08E810E94B90060E0B8
:1003F0008E810E94B9008BE891E00197F1F7DF91BF
:10040000CF910895CF92DF92EF92FF920F931F93B7
:10041000CF93DF936C017C0187E0E80EF11CD0E004
:10042000C0E0062F10E0B8010C2E02C0759567954C
:100430000A94E2F76170F70181917F010E94B9008F
:100440002196C430D10579F7C601DF91CF911F9174
:100450000F91FF90EF90DF90CF900C94EC01CF9232
:10046000DF92EF92FF920F931F93CF93DF93EC01F4
:10047000F62E642F8C810E94B9008D818F3F19F078
:1004800060E00E94B9000F2D10E08F8584FF25C029
:100490006E0187E0C80ED11CF12CE12CB8010E2CA6
:1004A00002C0759567950A94E2F76170F601819133
:1004B0006F010E94B900FFEFEF1AFF0A88E0E8160B
:1004C000F10461F7CE01DF91CF911F910F91FF9061
:1004D000EF90DF90CF900C94EC01B80184E075951B
:1004E00067958A95E1F7CE010E9402026F2DCE0139
:1004F000DF91CF911F910F91FF90EF90DF90CF9000
:100500000C94020240E0682F85E791E00C942F02E2
:1005100081E00E9482028BE39FE10197F1F7089549
:10052000CF93DF93823029F4909184019860909367
:100530008401809388011092890180E480938A016C
:1005400080E180938B0180E580938C0161E0809154
:1005500079010E94050180917A018F3F19F061E0D5
:100560000E94050161E080917B010E940501C5E7C1
:10057000D1E09E01255731408091840184FD0BC05C
:1005800084E090E021962817390744F461E08E81D9
:100590000E940501EECF88E090E0F4CF8BE39DE070
:1005A0000197F1F760E0809179010E94B90060E065
:1005B00080917B010E94B90080917A018F3F19F0F0
:1005C00060E00E94B9008091840184FD34C063E042
:1005D00085E791E00E940202CBE4D6E4CE010197C8
:1005E000F1F763E085E791E00E9402022197F1F7BD
:1005F00063E085E791E00E94020283E592E00197C3
:10060000F1F762E085E791E00E94020280918401A7
:1006100080620E94820284E0809385018CE00E94C7
:1006200082020E94880282E08093860186E0DF9148
:10063000CF910C94820280620E9482028BE496E445
:100640000197F1F78091840180620E94820283E524
:1006500092E00197F1F78091840180620E9482020A
:10066000D5CF90918801891710F08FEF890FE82F6F
:10067000F0E0EB58FE4F848980680C94820241E0E0
:100680000E942F0281E090E008951F920F920FB612
:100690000F9211242F933F938F939F93AF93BF9308
:1006A00080916B0190916C01A0916D01B0916E01F0
:1006B00030916A0123E0230F2D3758F50196A11DD3
:1006C000B11D20936A0180936B0190936C01A093FC
:1006D0006D01B0936E0180916F0190917001A091B6
:1006E0007101B09172010196A11DB11D80936F013E
:1006F00090937001A0937101B0937201BF91AF917B
:100700009F918F913F912F910F900FBE0F901F904F
:10071000189526E8230F0296A11DB11DD2CFCF92C6
:10072000DF92EF92FF920F931F93E82FF92F05C0EE
:10073000015011092109310961F190819623941723
:10074000B9F305C0015011092109310911F1908156
:1007500096239413F7CFC12CD12CE12CF12C0AC095
:100760008FEFC81AD80AE80AF80A0C151D052E05DD
:100770003F0579F080818623841791F36C2D7D2DC0
:100780008E2D9F2D1F910F91FF90EF90DF90CF90B6
:10079000089560E070E080E090E01F910F91FF907D
:1007A000EF90DF90CF900895789484B5826084BDF7
:1007B00084B5816084BD85B5826085BD85B5816065
:1007C00085BD80916E00816080936E0010928100E3
:1007D000809181008260809381008091810081609E
:1007E000809381008091800081608093800080915F
:1007F000B10084608093B1008091B00081608093EB
:10080000B00080917A00846080937A0080917A00B1
:10081000826080937A0080917A00816080937A0070
:1008200080917A00806880937A001092C10082E003
:100830000E94900261E08CE00E94050160E08BE084
:100840000E94050180E00E9431038CE091E00E944B
:10085000DF0181E00E9431038BE191E00E94DF0122
:1008600060ED77E080E090E00E945B010E948802EA
:1008700080E00E9431038BE291E00E94DF0181E081
:100880000E9431038BE391E00E94DF0160ED77E08D
:1008900080E090E00E945B010E948802C3E0D0E00B
:1008A00043E2E42EF12C59EBC52E50E0D52E65EA3B
:1008B000A62E60E0B62E70E0872E70E0972E60E0E6
:1008C0008CE00E94B900CE010197F1F761E08CE065
:1008D0000E94B900C7010197F1F760E08CE00E9427
:1008E000B900F6016491F5018491E82FF0E0EE0F74
:1008F000FF1FE057FF4F8591949100E412E42FE031
:1009000030E0462F0E948F03611571058105910526
:1009100029F06F5F7F4F8F4F9F4F9F709595879501
:10092000779567950E94380526E933E44BE05DE34F
:100930000E949C050E9400057093740160937301EE
:1009400080E00E94310388E491E00E94DF016AE0C8
:1009500070E080E090E00E945B0181E00E94310342
:100960008AE591E00E94DF0140907301509074018C
:10097000052C000C660877084AE0C301B20177FE37
:100980000EC041E06DE285E791E00E942F026627EC
:100990007727CB0164197509860997094AE00E94F7
:1009A000910184E691E00E94DF016AE070E080E05E
:1009B00090E00E945B018114910409F480CF0E94B1
:1009C00000007DCFE5E7F1E01382128284E091E040
:1009D0009183808382E084838FEF858383E08683A5
:1009E00084E0878385E0808786E0818787E082874F
:1009F0001386148615861686178681E00C9490025D
:100A00000E9407056894B1110C94960508950E9400
:100A10007B0588F09F5798F0B92F9927B751B0F010
:100A2000E1F0660F771F881F991F1AF0BA95C9F772
:100A300014C0B13091F00E949505B1E008950C9476
:100A40009505672F782F8827B85F39F0B93FCCF329
:100A5000869577956795B395D9F73EF490958095EF
:100A6000709561957F4F8F4F9F4F0895E89409C00F
:100A700097FB3EF490958095709561957F4F8F4FD1
:100A80009F4F9923A9F0F92F96E9BB279395F695E7
:100A9000879577956795B795F111F8CFFAF4BB0F65
:100AA00011F460FF1BC06F5F7F4F8F4F9F4F16C0C9
:100AB000882311F096E911C0772321F09EE8872F53
:100AC000762F05C0662371F096E8862F70E060E00F
:100AD0002AF09A95660F771F881FDAF7880F969588
:100AE000879597F9089557FD9058440F551F59F071
:100AF0005F3F71F04795880F97FB991F61F09F3F0B
:100B000079F087950895121613061406551FF2CF33
:100B10004695F1DF08C0161617061806991FF1CF83
:100B200086957105610508940895E894BB276627AA
:100B30007727CB0197F908950E94AF050C94200602
:100B40000E94120638F00E94190620F0952311F039
:100B50000C9409060C940F0611240C9496050E941F
:100B6000730570F3959FC1F3950F50E0551F629F79
:100B7000F001729FBB27F00DB11D639FAA27F00DF6
:100B8000B11DAA1F649F6627B00DA11D661F829F1D
:100B90002227B00DA11D621F739FB00DA11D621F02
:100BA000839FA00D611D221F749F3327A00D611D1F
:100BB000231F849F600D211D822F762F6A2F112401
:100BC0009F5750409AF0F1F088234AF0EE0FFF1F34
:100BD000BB1F661F771F881F91505040A9F79E3F8B
:100BE000510580F00C9409060C9496055F3FE4F3E0
:100BF000983ED4F3869577956795B795F795E795E1
:100C00009F5FC1F7FE2B880F911D9695879597F9E9
:100C1000089597F99F6780E870E060E008959FEF7E
:100C200080EC089500240A94161617061806090683
:100C3000089500240A941216130614060506089552
:100C4000092E0394000C11F4882352F0BB0F40F4DA
:100C5000BF2B11F460FF04C06F5F7F4F8F4F9F4F1A
:100C60000895A1E21A2EAA1BBB1BFD010DC0AA1FED
:100C7000BB1FEE1FFF1FA217B307E407F50720F005
:100C8000A21BB30BE40BF50B661F771F881F991F80
:100C90001A9469F760957095809590959B01AC01C9
:100CA000BD01CF010895EE0FFF1F0590F491E02DD7
:100CB0000994F894FFCF000000003F038C008E01E0
:100CC0008D01202044697374616E636520202020AB
:100CD0000020204D6561737572656D656E7420200E
:100CE00000202020204D61646520427920202020B2
:100CF00000202020205361796564204D4400446920
:100D00007374616E6365204D6561737572652E0045
:100D100044697374616E63653A0020436D2000007E
:107E0000112484B714BE81FFF0D085E080938100F7
:107E100082E08093C00088E18093C10086E0809377
:107E2000C20080E18093C4008EE0C9D0259A86E02C
:107E300020E33CEF91E0309385002093840096BBD3
:107E4000B09BFECF1D9AA8958150A9F7CC24DD24C4
:107E500088248394B5E0AB2EA1E19A2EF3E0BF2EE7
:107E6000A2D0813461F49FD0082FAFD0023811F036
:107E7000013811F484E001C083E08DD089C08234E0
:107E800011F484E103C0853419F485E0A6D080C0E4
:107E9000853579F488D0E82EFF2485D0082F10E0AE
:107EA000102F00270E291F29000F111F8ED06801E7
:107EB0006FC0863521F484E090D080E0DECF843638
:107EC00009F040C070D06FD0082F6DD080E0C81688
:107ED00080E7D80618F4F601B7BEE895C0E0D1E017
:107EE00062D089930C17E1F7F0E0CF16F0E7DF06D8
:107EF00018F0F601B7BEE89568D007B600FCFDCFD4
:107F0000A601A0E0B1E02C9130E011968C91119780
:107F100090E0982F8827822B932B1296FA010C0160
:107F200087BEE89511244E5F5F4FF1E0A038BF0790
:107F300051F7F601A7BEE89507B600FCFDCF97BE46
:107F4000E89526C08437B1F42ED02DD0F82E2BD052
:107F50003CD0F601EF2C8F010F5F1F4F84911BD097
:107F6000EA94F801C1F70894C11CD11CFA94CF0C13
:107F7000D11C0EC0853739F428D08EE10CD085E9AC
:107F80000AD08FE07ACF813511F488E018D01DD067
:107F900080E101D065CF982F8091C00085FFFCCF94
:107FA0009093C60008958091C00087FFFCCF809118
:107FB000C00084FD01C0A8958091C6000895E0E648
:107FC000F0E098E1908380830895EDDF803219F02E
:107FD00088E0F5DFFFCF84E1DECF1F93182FE3DFCA
:107FE0001150E9F7F2DF1F91089580E0E8DFEE27F6
:047FF000FF270994CA
:027FFE00040479
:00000001FF
